{
  "_format": "hh-sol-artifact-1",
  "contractName": "RewardDistribute",
  "sourceName": "contracts/RewardDistribute.sol",
  "abi": [
    {
      "inputs": [],
      "stateMutability": "nonpayable",
      "type": "constructor"
    },
    {
      "anonymous": false,
      "inputs": [
        {
          "indexed": false,
          "internalType": "address",
          "name": "previousAdmin",
          "type": "address"
        },
        {
          "indexed": false,
          "internalType": "address",
          "name": "newAdmin",
          "type": "address"
        }
      ],
      "name": "AdminChanged",
      "type": "event"
    },
    {
      "anonymous": false,
      "inputs": [
        {
          "indexed": true,
          "internalType": "address",
          "name": "beacon",
          "type": "address"
        }
      ],
      "name": "BeaconUpgraded",
      "type": "event"
    },
    {
      "anonymous": false,
      "inputs": [
        {
          "indexed": false,
          "internalType": "uint8",
          "name": "version",
          "type": "uint8"
        }
      ],
      "name": "Initialized",
      "type": "event"
    },
    {
      "anonymous": false,
      "inputs": [
        {
          "indexed": true,
          "internalType": "bytes32",
          "name": "role",
          "type": "bytes32"
        },
        {
          "indexed": true,
          "internalType": "bytes32",
          "name": "previousAdminRole",
          "type": "bytes32"
        },
        {
          "indexed": true,
          "internalType": "bytes32",
          "name": "newAdminRole",
          "type": "bytes32"
        }
      ],
      "name": "RoleAdminChanged",
      "type": "event"
    },
    {
      "anonymous": false,
      "inputs": [
        {
          "indexed": true,
          "internalType": "bytes32",
          "name": "role",
          "type": "bytes32"
        },
        {
          "indexed": true,
          "internalType": "address",
          "name": "account",
          "type": "address"
        },
        {
          "indexed": true,
          "internalType": "address",
          "name": "sender",
          "type": "address"
        }
      ],
      "name": "RoleGranted",
      "type": "event"
    },
    {
      "anonymous": false,
      "inputs": [
        {
          "indexed": true,
          "internalType": "bytes32",
          "name": "role",
          "type": "bytes32"
        },
        {
          "indexed": true,
          "internalType": "address",
          "name": "account",
          "type": "address"
        },
        {
          "indexed": true,
          "internalType": "address",
          "name": "sender",
          "type": "address"
        }
      ],
      "name": "RoleRevoked",
      "type": "event"
    },
    {
      "anonymous": false,
      "inputs": [
        {
          "indexed": true,
          "internalType": "address",
          "name": "implementation",
          "type": "address"
        }
      ],
      "name": "Upgraded",
      "type": "event"
    },
    {
      "anonymous": false,
      "inputs": [
        {
          "indexed": true,
          "internalType": "address",
          "name": "caller",
          "type": "address"
        },
        {
          "indexed": true,
          "internalType": "address",
          "name": "token",
          "type": "address"
        },
        {
          "indexed": false,
          "internalType": "uint256",
          "name": "amount",
          "type": "uint256"
        },
        {
          "indexed": false,
          "internalType": "uint256",
          "name": "timestamp",
          "type": "uint256"
        },
        {
          "indexed": false,
          "internalType": "uint256",
          "name": "order",
          "type": "uint256"
        }
      ],
      "name": "WithdrawReward",
      "type": "event"
    },
    {
      "inputs": [],
      "name": "DEFAULT_ADMIN_ROLE",
      "outputs": [
        {
          "internalType": "bytes32",
          "name": "",
          "type": "bytes32"
        }
      ],
      "stateMutability": "view",
      "type": "function"
    },
    {
      "inputs": [],
      "name": "DOMAIN_SEPARATOR",
      "outputs": [
        {
          "internalType": "bytes32",
          "name": "",
          "type": "bytes32"
        }
      ],
      "stateMutability": "view",
      "type": "function"
    },
    {
      "inputs": [],
      "name": "MANAGE_ROLE",
      "outputs": [
        {
          "internalType": "bytes32",
          "name": "",
          "type": "bytes32"
        }
      ],
      "stateMutability": "view",
      "type": "function"
    },
    {
      "inputs": [
        {
          "internalType": "address",
          "name": "token",
          "type": "address"
        }
      ],
      "name": "balance",
      "outputs": [
        {
          "internalType": "uint256",
          "name": "",
          "type": "uint256"
        }
      ],
      "stateMutability": "view",
      "type": "function"
    },
    {
      "inputs": [],
      "name": "funcSwitch",
      "outputs": [
        {
          "internalType": "bool",
          "name": "",
          "type": "bool"
        }
      ],
      "stateMutability": "view",
      "type": "function"
    },
    {
      "inputs": [
        {
          "internalType": "bytes32",
          "name": "role",
          "type": "bytes32"
        }
      ],
      "name": "getRoleAdmin",
      "outputs": [
        {
          "internalType": "bytes32",
          "name": "",
          "type": "bytes32"
        }
      ],
      "stateMutability": "view",
      "type": "function"
    },
    {
      "inputs": [
        {
          "internalType": "bytes32",
          "name": "role",
          "type": "bytes32"
        },
        {
          "internalType": "uint256",
          "name": "index",
          "type": "uint256"
        }
      ],
      "name": "getRoleMember",
      "outputs": [
        {
          "internalType": "address",
          "name": "",
          "type": "address"
        }
      ],
      "stateMutability": "view",
      "type": "function"
    },
    {
      "inputs": [
        {
          "internalType": "bytes32",
          "name": "role",
          "type": "bytes32"
        }
      ],
      "name": "getRoleMemberCount",
      "outputs": [
        {
          "internalType": "uint256",
          "name": "",
          "type": "uint256"
        }
      ],
      "stateMutability": "view",
      "type": "function"
    },
    {
      "inputs": [
        {
          "internalType": "bytes32",
          "name": "role",
          "type": "bytes32"
        },
        {
          "internalType": "address",
          "name": "account",
          "type": "address"
        }
      ],
      "name": "grantRole",
      "outputs": [],
      "stateMutability": "nonpayable",
      "type": "function"
    },
    {
      "inputs": [
        {
          "internalType": "bytes32",
          "name": "role",
          "type": "bytes32"
        },
        {
          "internalType": "address",
          "name": "account",
          "type": "address"
        }
      ],
      "name": "hasRole",
      "outputs": [
        {
          "internalType": "bool",
          "name": "",
          "type": "bool"
        }
      ],
      "stateMutability": "view",
      "type": "function"
    },
    {
      "inputs": [
        {
          "internalType": "address",
          "name": "_signer",
          "type": "address"
        }
      ],
      "name": "initialize",
      "outputs": [],
      "stateMutability": "nonpayable",
      "type": "function"
    },
    {
      "inputs": [
        {
          "internalType": "address",
          "name": "",
          "type": "address"
        }
      ],
      "name": "nonces",
      "outputs": [
        {
          "internalType": "uint256",
          "name": "",
          "type": "uint256"
        }
      ],
      "stateMutability": "view",
      "type": "function"
    },
    {
      "inputs": [],
      "name": "proxiableUUID",
      "outputs": [
        {
          "internalType": "bytes32",
          "name": "",
          "type": "bytes32"
        }
      ],
      "stateMutability": "view",
      "type": "function"
    },
    {
      "inputs": [
        {
          "internalType": "bytes32",
          "name": "role",
          "type": "bytes32"
        },
        {
          "internalType": "address",
          "name": "account",
          "type": "address"
        }
      ],
      "name": "renounceRole",
      "outputs": [],
      "stateMutability": "nonpayable",
      "type": "function"
    },
    {
      "inputs": [
        {
          "internalType": "bytes32",
          "name": "role",
          "type": "bytes32"
        },
        {
          "internalType": "address",
          "name": "account",
          "type": "address"
        }
      ],
      "name": "revokeRole",
      "outputs": [],
      "stateMutability": "nonpayable",
      "type": "function"
    },
    {
      "inputs": [
        {
          "internalType": "bool",
          "name": "_funcSwitch",
          "type": "bool"
        }
      ],
      "name": "setFuncSwith",
      "outputs": [],
      "stateMutability": "nonpayable",
      "type": "function"
    },
    {
      "inputs": [
        {
          "internalType": "address",
          "name": "_signer",
          "type": "address"
        }
      ],
      "name": "setSigner",
      "outputs": [],
      "stateMutability": "nonpayable",
      "type": "function"
    },
    {
      "inputs": [],
      "name": "signer",
      "outputs": [
        {
          "internalType": "address",
          "name": "",
          "type": "address"
        }
      ],
      "stateMutability": "view",
      "type": "function"
    },
    {
      "inputs": [
        {
          "internalType": "bytes4",
          "name": "interfaceId",
          "type": "bytes4"
        }
      ],
      "name": "supportsInterface",
      "outputs": [
        {
          "internalType": "bool",
          "name": "",
          "type": "bool"
        }
      ],
      "stateMutability": "view",
      "type": "function"
    },
    {
      "inputs": [
        {
          "internalType": "address",
          "name": "newImplementation",
          "type": "address"
        }
      ],
      "name": "upgradeTo",
      "outputs": [],
      "stateMutability": "nonpayable",
      "type": "function"
    },
    {
      "inputs": [
        {
          "internalType": "address",
          "name": "newImplementation",
          "type": "address"
        },
        {
          "internalType": "bytes",
          "name": "data",
          "type": "bytes"
        }
      ],
      "name": "upgradeToAndCall",
      "outputs": [],
      "stateMutability": "payable",
      "type": "function"
    },
    {
      "inputs": [
        {
          "internalType": "bytes",
          "name": "data",
          "type": "bytes"
        }
      ],
      "name": "withdrawReward",
      "outputs": [],
      "stateMutability": "nonpayable",
      "type": "function"
    }
  ],
  "bytecode": "0x60a06040523060805234801561001457600080fd5b5061001d610022565b6100e1565b600054610100900460ff161561008e5760405162461bcd60e51b815260206004820152602760248201527f496e697469616c697a61626c653a20636f6e747261637420697320696e697469604482015266616c697a696e6760c81b606482015260840160405180910390fd5b60005460ff908116146100df576000805460ff191660ff9081179091556040519081527f7f26b83ff96e1f2b6a682f133852f6798a09c465da95921460cefb38474024989060200160405180910390a15b565b60805161220f620001196000396000818161050901528181610549015281816105e80152818161062801526106b7015261220f6000f3fe6080604052600436106101355760003560e01c80636c19e783116100ab5780639be2c2ef1161006f5780639be2c2ef14610377578063a217fddf14610392578063c4d66de8146103a7578063ca15c873146103c7578063d547741f146103e7578063e3d670d71461040757600080fd5b80636c19e783146102c95780637ecebe00146102e9578063824d5599146103175780639010d07c1461033757806391d148541461035757600080fd5b806336568abe116100fd57806336568abe1461021f5780633659cfe61461023f5780634f1ef2861461025f57806352d1902d1461027257806360a4b76a146102875780636763ccbd146102a957600080fd5b806301ffc9a71461013a578063238ac9331461016f578063248a9ca3146101a85780632f2ff15d146101e65780633644e51514610208575b600080fd5b34801561014657600080fd5b5061015a610155366004611bbe565b610427565b60405190151581526020015b60405180910390f35b34801561017b57600080fd5b5061016154610190906001600160a01b031681565b6040516001600160a01b039091168152602001610166565b3480156101b457600080fd5b506101d86101c3366004611be8565b60009081526065602052604090206001015490565b604051908152602001610166565b3480156101f257600080fd5b50610206610201366004611c16565b610452565b005b34801561021457600080fd5b506101d86101605481565b34801561022b57600080fd5b5061020661023a366004611c16565b61047c565b34801561024b57600080fd5b5061020661025a366004611c46565b6104ff565b61020661026d366004611d28565b6105de565b34801561027e57600080fd5b506101d86106aa565b34801561029357600080fd5b506101d86000805160206121ba83398151915281565b3480156102b557600080fd5b506102066102c4366004611d78565b61075d565b3480156102d557600080fd5b506102066102e4366004611c46565b610bc6565b3480156102f557600080fd5b506101d8610304366004611c46565b6101626020526000908152604090205481565b34801561032357600080fd5b50610206610332366004611dbb565b610c02565b34801561034357600080fd5b50610190610352366004611dd8565b610c2f565b34801561036357600080fd5b5061015a610372366004611c16565b610c4e565b34801561038357600080fd5b5061015f5461015a9060ff1681565b34801561039e57600080fd5b506101d8600081565b3480156103b357600080fd5b506102066103c2366004611c46565b610c79565b3480156103d357600080fd5b506101d86103e2366004611be8565b610eb1565b3480156103f357600080fd5b50610206610402366004611c16565b610ec8565b34801561041357600080fd5b506101d8610422366004611c46565b610eed565b60006001600160e01b03198216635a05180f60e01b148061044c575061044c82610f6c565b92915050565b60008281526065602052604090206001015461046d81610fa1565b6104778383610fab565b505050565b6001600160a01b03811633146104f15760405162461bcd60e51b815260206004820152602f60248201527f416363657373436f6e74726f6c3a2063616e206f6e6c792072656e6f756e636560448201526e103937b632b9903337b91039b2b63360891b60648201526084015b60405180910390fd5b6104fb8282610fcd565b5050565b6001600160a01b037f00000000000000000000000000000000000000000000000000000000000000001630036105475760405162461bcd60e51b81526004016104e890611dfa565b7f00000000000000000000000000000000000000000000000000000000000000006001600160a01b0316610590600080516020612173833981519152546001600160a01b031690565b6001600160a01b0316146105b65760405162461bcd60e51b81526004016104e890611e46565b6105bf81610fef565b604080516000808252602082019092526105db91839190611007565b50565b6001600160a01b037f00000000000000000000000000000000000000000000000000000000000000001630036106265760405162461bcd60e51b81526004016104e890611dfa565b7f00000000000000000000000000000000000000000000000000000000000000006001600160a01b031661066f600080516020612173833981519152546001600160a01b031690565b6001600160a01b0316146106955760405162461bcd60e51b81526004016104e890611e46565b61069e82610fef565b6104fb82826001611007565b6000306001600160a01b037f0000000000000000000000000000000000000000000000000000000000000000161461074a5760405162461bcd60e51b815260206004820152603860248201527f555550535570677261646561626c653a206d757374206e6f742062652063616c60448201527f6c6564207468726f7567682064656c656761746563616c6c000000000000000060648201526084016104e8565b5060008051602061217383398151915290565b610765611172565b61015f5460ff16156107af5760405162461bcd60e51b81526020600482015260136024820152724552524f523a204e4f5420534552564943455360681b60448201526064016104e8565b6000806000806000806000878060200190518101906107ce9190611eb6565b9650965096509650965096509650336001600160a01b0316876001600160a01b03161461083d5760405162461bcd60e51b815260206004820152601d60248201527f526577617264446973747269627574653a494e56414c49445f5553455200000060448201526064016104e8565b3360009081526101626020526040902054831461089c5760405162461bcd60e51b815260206004820152601e60248201527f526577617264446973747269627574653a494e56414c49445f4e4f4e4345000060448201526064016104e8565b814211156108ec5760405162461bcd60e51b815260206004820152601a60248201527f526577617264446973747269627574653a2054494d45204f555400000000000060448201526064016104e8565b60008060006108fa846111cb565b925092509250600061016054604051602001610985907f5065726d6974286164647265737320757365722c6164647265737320746f6b6581527f6e2c75696e74323536206f726465722c75696e7432353620616d6f756e742c7560208201527f696e74323536206e6f6e63652c75696e7432353620646561646c696e652900006040820152605e0190565b60408051808303601f190181528282528051602091820120818401526001600160a01b038f8116848401528e166060840152608083018d905260a083018c905260c083018b905260e08084018b9052825180850390910181526101008401909252815191012061190160f01b6101208301526101228201929092526101428101919091526101620160408051601f1981840301815282825280516020918201206000845290830180835281905260ff8716918301919091526060820185905260808201849052915060019060a0016020604051602081039080840390855afa158015610a75573d6000803e3d6000fd5b5050604051601f190151610161546001600160a01b039081169116149050610ad75760405162461bcd60e51b815260206004820152601560248201527411549493d48e9253959053125117d49154555154d5605a1b60448201526064016104e8565b33600090815261016260205260408120805491610af383611f94565b919050555087610b028b610eed565b1015610b505760405162461bcd60e51b815260206004820152601d60248201527f526577617264446973747269627574653a494e53554646494349454e5400000060448201526064016104e8565b610b646001600160a01b038b168c8a61123d565b604080518981524260208201529081018a90526001600160a01b038b169033907fbb873e1f721a078dc6666b560c8f8a58540d7f2482138c9ecb84a8f7fa7cf73b9060600160405180910390a350505050505050505050506105db600160c955565b6000805160206121ba833981519152610bde81610fa1565b5061016180546001600160a01b0319166001600160a01b0392909216919091179055565b6000805160206121ba833981519152610c1a81610fa1565b5061015f805460ff1916911515919091179055565b6000828152609760205260408120610c479083611296565b9392505050565b60009182526065602090815260408084206001600160a01b0393909316845291905290205460ff1690565b600054610100900460ff1615808015610c995750600054600160ff909116105b80610cb35750303b158015610cb3575060005460ff166001145b610d165760405162461bcd60e51b815260206004820152602e60248201527f496e697469616c697a61626c653a20636f6e747261637420697320616c72656160448201526d191e481a5b9a5d1a585b1a5e995960921b60648201526084016104e8565b6000805460ff191660011790558015610d39576000805461ff0019166101001790555b610d416112a2565b610d496112cb565b610d516112a2565b610d5c600033610fab565b610d746000805160206121ba83398151915233610fab565b61016180546001600160a01b0319166001600160a01b038416179055604080518082018252601081526f5265776172644469737472696275746560801b6020918201528151808301835260018152603160f81b9082015281517f8b73c3c69bb8fe3d512ecc4cf759cc79239f7b179b0ffacaa9a75d522b39400f818301527f3e60812688d67d8f5b1d664a59e5c34d5e0fa42002aad2aef2b31c796853467b818401527fc89efdaa54c0f20c7adf612882df0950f5a951637e0307cdcb4c672f298b8bc660608201524660808201523060a0808301919091528351808303909101815260c090910190925281519101206101605580156104fb576000805461ff0019169055604051600181527f7f26b83ff96e1f2b6a682f133852f6798a09c465da95921460cefb38474024989060200160405180910390a15050565b600081815260976020526040812061044c906112fa565b600082815260656020526040902060010154610ee381610fa1565b6104778383610fcd565b60006001600160a01b038216610f04575047919050565b6040516370a0823160e01b81523060048201526001600160a01b038316906370a0823190602401602060405180830381865afa158015610f48573d6000803e3d6000fd5b505050506040513d601f19601f8201168201806040525081019061044c9190611fad565b60006001600160e01b03198216637965db0b60e01b148061044c57506301ffc9a760e01b6001600160e01b031983161461044c565b6105db8133611304565b610fb5828261135d565b600082815260976020526040902061047790826113e3565b610fd782826113f8565b6000828152609760205260409020610477908261145f565b6000805160206121ba8339815191526104fb81610fa1565b7f4910fdfa16fed3260ed0e7147f7cc6da11a60208b5b9406d12a635614ffd91435460ff161561103a5761047783611474565b826001600160a01b03166352d1902d6040518163ffffffff1660e01b8152600401602060405180830381865afa925050508015611094575060408051601f3d908101601f1916820190925261109191810190611fad565b60015b6110f75760405162461bcd60e51b815260206004820152602e60248201527f45524331393637557067726164653a206e657720696d706c656d656e7461746960448201526d6f6e206973206e6f74205555505360901b60648201526084016104e8565b60008051602061217383398151915281146111665760405162461bcd60e51b815260206004820152602960248201527f45524331393637557067726164653a20756e737570706f727465642070726f786044820152681a58589b195555525160ba1b60648201526084016104e8565b50610477838383611510565b600260c954036111c45760405162461bcd60e51b815260206004820152601f60248201527f5265656e7472616e637947756172643a207265656e7472616e742063616c6c0060448201526064016104e8565b600260c955565b600080600083516041146112215760405162461bcd60e51b815260206004820152601a60248201527f4e6f7420496e76616c6964205369676e6174757265204461746100000000000060448201526064016104e8565b5050506020810151604082015160609092015160001a92909190565b604080516001600160a01b038416602482015260448082018490528251808303909101815260649091019091526020810180516001600160e01b031663a9059cbb60e01b17905261047790849061153b565b600160c955565b6000610c478383611610565b600054610100900460ff166112c95760405162461bcd60e51b81526004016104e890611fc6565b565b600054610100900460ff166112f25760405162461bcd60e51b81526004016104e890611fc6565b6112c961163a565b600061044c825490565b61130e8282610c4e565b6104fb5761131b81611661565b611326836020611673565b604051602001611337929190612011565b60408051601f198184030181529082905262461bcd60e51b82526104e891600401612086565b6113678282610c4e565b6104fb5760008281526065602090815260408083206001600160a01b03851684529091529020805460ff1916600117905561139f3390565b6001600160a01b0316816001600160a01b0316837f2f8788117e7eff1d82e926ec794901d17c78024a50270940304540a733656f0d60405160405180910390a45050565b6000610c47836001600160a01b03841661180f565b6114028282610c4e565b156104fb5760008281526065602090815260408083206001600160a01b0385168085529252808320805460ff1916905551339285917ff6391f5c32d9c69d2a47ea670b442974b53935d1edc7fd64eb21e047a839171b9190a45050565b6000610c47836001600160a01b03841661185e565b6001600160a01b0381163b6114e15760405162461bcd60e51b815260206004820152602d60248201527f455243313936373a206e657720696d706c656d656e746174696f6e206973206e60448201526c1bdd08184818dbdb9d1c9858dd609a1b60648201526084016104e8565b60008051602061217383398151915280546001600160a01b0319166001600160a01b0392909216919091179055565b61151983611951565b6000825111806115265750805b15610477576115358383611991565b50505050565b6000611590826040518060400160405280602081526020017f5361666545524332303a206c6f772d6c6576656c2063616c6c206661696c6564815250856001600160a01b03166119b69092919063ffffffff16565b90508051600014806115b15750808060200190518101906115b191906120b9565b6104775760405162461bcd60e51b815260206004820152602a60248201527f5361666545524332303a204552433230206f7065726174696f6e20646964206e6044820152691bdd081cdd58d8d9595960b21b60648201526084016104e8565b6000826000018281548110611627576116276120d6565b9060005260206000200154905092915050565b600054610100900460ff1661128f5760405162461bcd60e51b81526004016104e890611fc6565b606061044c6001600160a01b03831660145b606060006116828360026120ec565b61168d906002612103565b67ffffffffffffffff8111156116a5576116a5611c63565b6040519080825280601f01601f1916602001820160405280156116cf576020820181803683370190505b509050600360fc1b816000815181106116ea576116ea6120d6565b60200101906001600160f81b031916908160001a905350600f60fb1b81600181518110611719576117196120d6565b60200101906001600160f81b031916908160001a905350600061173d8460026120ec565b611748906001612103565b90505b60018111156117c0576f181899199a1a9b1b9c1cb0b131b232b360811b85600f166010811061177c5761177c6120d6565b1a60f81b828281518110611792576117926120d6565b60200101906001600160f81b031916908160001a90535060049490941c936117b981612116565b905061174b565b508315610c475760405162461bcd60e51b815260206004820181905260248201527f537472696e67733a20686578206c656e67746820696e73756666696369656e7460448201526064016104e8565b60008181526001830160205260408120546118565750815460018181018455600084815260208082209093018490558454848252828601909352604090209190915561044c565b50600061044c565b6000818152600183016020526040812054801561194757600061188260018361212d565b85549091506000906118969060019061212d565b90508181146118fb5760008660000182815481106118b6576118b66120d6565b90600052602060002001549050808760000184815481106118d9576118d96120d6565b6000918252602080832090910192909255918252600188019052604090208390555b855486908061190c5761190c612140565b60019003818190600052602060002001600090559055856001016000868152602001908152602001600020600090556001935050505061044c565b600091505061044c565b61195a81611474565b6040516001600160a01b038216907fbc7cd75a20ee27fd9adebab32041f755214dbc6bffa90cc0225b39da2e5c2d3b90600090a250565b6060610c478383604051806060016040528060278152602001612193602791396119cd565b60606119c58484600085611a45565b949350505050565b6060600080856001600160a01b0316856040516119ea9190612156565b600060405180830381855af49150503d8060008114611a25576040519150601f19603f3d011682016040523d82523d6000602084013e611a2a565b606091505b5091509150611a3b86838387611b20565b9695505050505050565b606082471015611aa65760405162461bcd60e51b815260206004820152602660248201527f416464726573733a20696e73756666696369656e742062616c616e636520666f6044820152651c8818d85b1b60d21b60648201526084016104e8565b600080866001600160a01b03168587604051611ac29190612156565b60006040518083038185875af1925050503d8060008114611aff576040519150601f19603f3d011682016040523d82523d6000602084013e611b04565b606091505b5091509150611b1587838387611b20565b979650505050505050565b60608315611b8f578251600003611b88576001600160a01b0385163b611b885760405162461bcd60e51b815260206004820152601d60248201527f416464726573733a2063616c6c20746f206e6f6e2d636f6e747261637400000060448201526064016104e8565b50816119c5565b6119c58383815115611ba45781518083602001fd5b8060405162461bcd60e51b81526004016104e89190612086565b600060208284031215611bd057600080fd5b81356001600160e01b031981168114610c4757600080fd5b600060208284031215611bfa57600080fd5b5035919050565b6001600160a01b03811681146105db57600080fd5b60008060408385031215611c2957600080fd5b823591506020830135611c3b81611c01565b809150509250929050565b600060208284031215611c5857600080fd5b8135610c4781611c01565b634e487b7160e01b600052604160045260246000fd5b604051601f8201601f1916810167ffffffffffffffff81118282101715611ca257611ca2611c63565b604052919050565b600067ffffffffffffffff821115611cc457611cc4611c63565b50601f01601f191660200190565b600082601f830112611ce357600080fd5b8135611cf6611cf182611caa565b611c79565b818152846020838601011115611d0b57600080fd5b816020850160208301376000918101602001919091529392505050565b60008060408385031215611d3b57600080fd5b8235611d4681611c01565b9150602083013567ffffffffffffffff811115611d6257600080fd5b611d6e85828601611cd2565b9150509250929050565b600060208284031215611d8a57600080fd5b813567ffffffffffffffff811115611da157600080fd5b6119c584828501611cd2565b80151581146105db57600080fd5b600060208284031215611dcd57600080fd5b8135610c4781611dad565b60008060408385031215611deb57600080fd5b50508035926020909101359150565b6020808252602c908201527f46756e6374696f6e206d7573742062652063616c6c6564207468726f7567682060408201526b19195b1959d85d1958d85b1b60a21b606082015260800190565b6020808252602c908201527f46756e6374696f6e206d7573742062652063616c6c6564207468726f7567682060408201526b6163746976652070726f787960a01b606082015260800190565b60005b83811015611ead578181015183820152602001611e95565b50506000910152565b600080600080600080600060e0888a031215611ed157600080fd5b8751611edc81611c01565b6020890151909750611eed81611c01565b8096505060408801519450606088015193506080880151925060a0880151915060c088015167ffffffffffffffff811115611f2757600080fd5b8801601f81018a13611f3857600080fd5b8051611f46611cf182611caa565b8181528b6020838501011115611f5b57600080fd5b611f6c826020830160208601611e92565b80935050505092959891949750929550565b634e487b7160e01b600052601160045260246000fd5b600060018201611fa657611fa6611f7e565b5060010190565b600060208284031215611fbf57600080fd5b5051919050565b6020808252602b908201527f496e697469616c697a61626c653a20636f6e7472616374206973206e6f74206960408201526a6e697469616c697a696e6760a81b606082015260800190565b7f416363657373436f6e74726f6c3a206163636f756e7420000000000000000000815260008351612049816017850160208801611e92565b7001034b99036b4b9b9b4b733903937b6329607d1b601791840191820152835161207a816028840160208801611e92565b01602801949350505050565b60208152600082518060208401526120a5816040850160208701611e92565b601f01601f19169190910160400192915050565b6000602082840312156120cb57600080fd5b8151610c4781611dad565b634e487b7160e01b600052603260045260246000fd5b808202811582820484141761044c5761044c611f7e565b8082018082111561044c5761044c611f7e565b60008161212557612125611f7e565b506000190190565b8181038181111561044c5761044c611f7e565b634e487b7160e01b600052603160045260246000fd5b60008251612168818460208701611e92565b919091019291505056fe360894a13ba1a3210667c828492db98dca3e2076cc3735a920a3ca505d382bbc416464726573733a206c6f772d6c6576656c2064656c65676174652063616c6c206661696c6564a076a07f65bcd51bcb15a0f01a65bc18f2d922acb81bcfd8af4caf5adb557091a2646970667358221220863e6a4f45b1dd8d0c00209cb206cc19ab371efdc8486441470c1930222be62164736f6c63430008110033",
  "linkReferences": {},
  "deployedLinkReferences": {}
}