{
  "_format": "hh-sol-artifact-1",
  "contractName": "Money_IDO",
  "sourceName": "contracts/Money_IDO.sol",
  "abi": [
    {
      "inputs": [],
      "stateMutability": "nonpayable",
      "type": "constructor"
    },
    {
      "anonymous": false,
      "inputs": [
        {
          "indexed": false,
          "internalType": "address",
          "name": "previousAdmin",
          "type": "address"
        },
        {
          "indexed": false,
          "internalType": "address",
          "name": "newAdmin",
          "type": "address"
        }
      ],
      "name": "AdminChanged",
      "type": "event"
    },
    {
      "anonymous": false,
      "inputs": [
        {
          "indexed": true,
          "internalType": "address",
          "name": "beacon",
          "type": "address"
        }
      ],
      "name": "BeaconUpgraded",
      "type": "event"
    },
    {
      "anonymous": false,
      "inputs": [
        {
          "indexed": false,
          "internalType": "address",
          "name": "caller",
          "type": "address"
        },
        {
          "indexed": false,
          "internalType": "address",
          "name": "referrer",
          "type": "address"
        }
      ],
      "name": "Bindind",
      "type": "event"
    },
    {
      "anonymous": false,
      "inputs": [
        {
          "indexed": false,
          "internalType": "uint8",
          "name": "version",
          "type": "uint8"
        }
      ],
      "name": "Initialized",
      "type": "event"
    },
    {
      "anonymous": false,
      "inputs": [
        {
          "indexed": true,
          "internalType": "bytes32",
          "name": "role",
          "type": "bytes32"
        },
        {
          "indexed": true,
          "internalType": "bytes32",
          "name": "previousAdminRole",
          "type": "bytes32"
        },
        {
          "indexed": true,
          "internalType": "bytes32",
          "name": "newAdminRole",
          "type": "bytes32"
        }
      ],
      "name": "RoleAdminChanged",
      "type": "event"
    },
    {
      "anonymous": false,
      "inputs": [
        {
          "indexed": true,
          "internalType": "bytes32",
          "name": "role",
          "type": "bytes32"
        },
        {
          "indexed": true,
          "internalType": "address",
          "name": "account",
          "type": "address"
        },
        {
          "indexed": true,
          "internalType": "address",
          "name": "sender",
          "type": "address"
        }
      ],
      "name": "RoleGranted",
      "type": "event"
    },
    {
      "anonymous": false,
      "inputs": [
        {
          "indexed": true,
          "internalType": "bytes32",
          "name": "role",
          "type": "bytes32"
        },
        {
          "indexed": true,
          "internalType": "address",
          "name": "account",
          "type": "address"
        },
        {
          "indexed": true,
          "internalType": "address",
          "name": "sender",
          "type": "address"
        }
      ],
      "name": "RoleRevoked",
      "type": "event"
    },
    {
      "anonymous": false,
      "inputs": [
        {
          "indexed": true,
          "internalType": "address",
          "name": "implementation",
          "type": "address"
        }
      ],
      "name": "Upgraded",
      "type": "event"
    },
    {
      "inputs": [],
      "name": "DEFAULT_ADMIN_ROLE",
      "outputs": [
        {
          "internalType": "bytes32",
          "name": "",
          "type": "bytes32"
        }
      ],
      "stateMutability": "view",
      "type": "function"
    },
    {
      "inputs": [],
      "name": "MANAGE_ROLE",
      "outputs": [
        {
          "internalType": "bytes32",
          "name": "",
          "type": "bytes32"
        }
      ],
      "stateMutability": "view",
      "type": "function"
    },
    {
      "inputs": [
        {
          "internalType": "address",
          "name": "referrer",
          "type": "address"
        }
      ],
      "name": "bind",
      "outputs": [],
      "stateMutability": "nonpayable",
      "type": "function"
    },
    {
      "inputs": [
        {
          "internalType": "uint256",
          "name": "amount",
          "type": "uint256"
        }
      ],
      "name": "buy",
      "outputs": [],
      "stateMutability": "nonpayable",
      "type": "function"
    },
    {
      "inputs": [
        {
          "internalType": "bytes32",
          "name": "role",
          "type": "bytes32"
        }
      ],
      "name": "getRoleAdmin",
      "outputs": [
        {
          "internalType": "bytes32",
          "name": "",
          "type": "bytes32"
        }
      ],
      "stateMutability": "view",
      "type": "function"
    },
    {
      "inputs": [
        {
          "internalType": "bytes32",
          "name": "role",
          "type": "bytes32"
        },
        {
          "internalType": "uint256",
          "name": "index",
          "type": "uint256"
        }
      ],
      "name": "getRoleMember",
      "outputs": [
        {
          "internalType": "address",
          "name": "",
          "type": "address"
        }
      ],
      "stateMutability": "view",
      "type": "function"
    },
    {
      "inputs": [
        {
          "internalType": "bytes32",
          "name": "role",
          "type": "bytes32"
        }
      ],
      "name": "getRoleMemberCount",
      "outputs": [
        {
          "internalType": "uint256",
          "name": "",
          "type": "uint256"
        }
      ],
      "stateMutability": "view",
      "type": "function"
    },
    {
      "inputs": [
        {
          "internalType": "bytes32",
          "name": "role",
          "type": "bytes32"
        },
        {
          "internalType": "address",
          "name": "account",
          "type": "address"
        }
      ],
      "name": "grantRole",
      "outputs": [],
      "stateMutability": "nonpayable",
      "type": "function"
    },
    {
      "inputs": [
        {
          "internalType": "bytes32",
          "name": "role",
          "type": "bytes32"
        },
        {
          "internalType": "address",
          "name": "account",
          "type": "address"
        }
      ],
      "name": "hasRole",
      "outputs": [
        {
          "internalType": "bool",
          "name": "",
          "type": "bool"
        }
      ],
      "stateMutability": "view",
      "type": "function"
    },
    {
      "inputs": [],
      "name": "idoInfo",
      "outputs": [
        {
          "internalType": "uint256",
          "name": "launchAmount",
          "type": "uint256"
        },
        {
          "internalType": "uint256",
          "name": "beginTime",
          "type": "uint256"
        },
        {
          "internalType": "uint256",
          "name": "endTime",
          "type": "uint256"
        },
        {
          "internalType": "uint256",
          "name": "price",
          "type": "uint256"
        },
        {
          "internalType": "uint256",
          "name": "subsMinLimit",
          "type": "uint256"
        },
        {
          "internalType": "uint256",
          "name": "subsMaxLimit",
          "type": "uint256"
        }
      ],
      "stateMutability": "view",
      "type": "function"
    },
    {
      "inputs": [
        {
          "internalType": "contract IERC20Upgradeable",
          "name": "_usdt",
          "type": "address"
        },
        {
          "internalType": "contract IERC20Upgradeable",
          "name": "_money",
          "type": "address"
        },
        {
          "internalType": "address",
          "name": "_topAccount",
          "type": "address"
        },
        {
          "internalType": "address",
          "name": "_feeReceiver",
          "type": "address"
        },
        {
          "internalType": "address",
          "name": "_outGoingAddress",
          "type": "address"
        }
      ],
      "name": "initialize",
      "outputs": [],
      "stateMutability": "nonpayable",
      "type": "function"
    },
    {
      "inputs": [],
      "name": "proxiableUUID",
      "outputs": [
        {
          "internalType": "bytes32",
          "name": "",
          "type": "bytes32"
        }
      ],
      "stateMutability": "view",
      "type": "function"
    },
    {
      "inputs": [
        {
          "internalType": "address",
          "name": "account",
          "type": "address"
        }
      ],
      "name": "queryUnlockAmount",
      "outputs": [
        {
          "internalType": "uint256",
          "name": "",
          "type": "uint256"
        }
      ],
      "stateMutability": "view",
      "type": "function"
    },
    {
      "inputs": [
        {
          "internalType": "bytes32",
          "name": "role",
          "type": "bytes32"
        },
        {
          "internalType": "address",
          "name": "account",
          "type": "address"
        }
      ],
      "name": "renounceRole",
      "outputs": [],
      "stateMutability": "nonpayable",
      "type": "function"
    },
    {
      "inputs": [
        {
          "internalType": "bytes32",
          "name": "role",
          "type": "bytes32"
        },
        {
          "internalType": "address",
          "name": "account",
          "type": "address"
        }
      ],
      "name": "revokeRole",
      "outputs": [],
      "stateMutability": "nonpayable",
      "type": "function"
    },
    {
      "inputs": [
        {
          "internalType": "bytes4",
          "name": "interfaceId",
          "type": "bytes4"
        }
      ],
      "name": "supportsInterface",
      "outputs": [
        {
          "internalType": "bool",
          "name": "",
          "type": "bool"
        }
      ],
      "stateMutability": "view",
      "type": "function"
    },
    {
      "inputs": [
        {
          "internalType": "address",
          "name": "recevier",
          "type": "address"
        },
        {
          "internalType": "uint256",
          "name": "amount",
          "type": "uint256"
        }
      ],
      "name": "transfer",
      "outputs": [],
      "stateMutability": "nonpayable",
      "type": "function"
    },
    {
      "inputs": [
        {
          "internalType": "address",
          "name": "newImplementation",
          "type": "address"
        }
      ],
      "name": "upgradeTo",
      "outputs": [],
      "stateMutability": "nonpayable",
      "type": "function"
    },
    {
      "inputs": [
        {
          "internalType": "address",
          "name": "newImplementation",
          "type": "address"
        },
        {
          "internalType": "bytes",
          "name": "data",
          "type": "bytes"
        }
      ],
      "name": "upgradeToAndCall",
      "outputs": [],
      "stateMutability": "payable",
      "type": "function"
    },
    {
      "inputs": [
        {
          "internalType": "address",
          "name": "account",
          "type": "address"
        }
      ],
      "name": "viewFoundsRecord",
      "outputs": [
        {
          "internalType": "uint256[]",
          "name": "",
          "type": "uint256[]"
        },
        {
          "internalType": "uint256[]",
          "name": "",
          "type": "uint256[]"
        },
        {
          "internalType": "string[]",
          "name": "",
          "type": "string[]"
        },
        {
          "internalType": "uint256[]",
          "name": "",
          "type": "uint256[]"
        }
      ],
      "stateMutability": "view",
      "type": "function"
    },
    {
      "inputs": [
        {
          "internalType": "address",
          "name": "account",
          "type": "address"
        }
      ],
      "name": "viewIdoRecord",
      "outputs": [
        {
          "components": [
            {
              "internalType": "uint256",
              "name": "time",
              "type": "uint256"
            },
            {
              "internalType": "uint256",
              "name": "usdtAmount",
              "type": "uint256"
            },
            {
              "internalType": "uint256",
              "name": "moneyAmount",
              "type": "uint256"
            },
            {
              "internalType": "uint256",
              "name": "releaeAmount",
              "type": "uint256"
            },
            {
              "internalType": "uint256",
              "name": "lockAmount",
              "type": "uint256"
            }
          ],
          "internalType": "struct IDORecord",
          "name": "idoRecord",
          "type": "tuple"
        }
      ],
      "stateMutability": "view",
      "type": "function"
    },
    {
      "inputs": [
        {
          "internalType": "address",
          "name": "account",
          "type": "address"
        }
      ],
      "name": "viewInviteRecord",
      "outputs": [
        {
          "internalType": "address[]",
          "name": "accounts",
          "type": "address[]"
        },
        {
          "internalType": "uint256[]",
          "name": "times",
          "type": "uint256[]"
        },
        {
          "internalType": "bool[]",
          "name": "actives",
          "type": "bool[]"
        }
      ],
      "stateMutability": "view",
      "type": "function"
    },
    {
      "inputs": [
        {
          "internalType": "address",
          "name": "account",
          "type": "address"
        }
      ],
      "name": "viewTransferRecord",
      "outputs": [
        {
          "internalType": "address[]",
          "name": "",
          "type": "address[]"
        },
        {
          "internalType": "uint256[]",
          "name": "",
          "type": "uint256[]"
        },
        {
          "internalType": "uint256[]",
          "name": "",
          "type": "uint256[]"
        }
      ],
      "stateMutability": "view",
      "type": "function"
    },
    {
      "inputs": [],
      "name": "withdrawMoney",
      "outputs": [],
      "stateMutability": "nonpayable",
      "type": "function"
    },
    {
      "inputs": [
        {
          "internalType": "uint256",
          "name": "amount",
          "type": "uint256"
        }
      ],
      "name": "withdrawUsdt",
      "outputs": [],
      "stateMutability": "nonpayable",
      "type": "function"
    }
  ],
  "bytecode": "0x60a0604052306080523480156200001557600080fd5b506200002062000026565b620000e7565b600054610100900460ff1615620000935760405162461bcd60e51b815260206004820152602760248201527f496e697469616c697a61626c653a20636f6e747261637420697320696e697469604482015266616c697a696e6760c81b606482015260840160405180910390fd5b60005460ff90811614620000e5576000805460ff191660ff9081179091556040519081527f7f26b83ff96e1f2b6a682f133852f6798a09c465da95921460cefb38474024989060200160405180910390a15b565b6080516133bb6200011f60003960008181610a6f01528181610aaf01528181610b4e01528181610b8e0152610d5201526133bb6000f3fe6080604052600436106101665760003560e01c806381bac14f116100d1578063ac4460021161008a578063d3635a0211610064578063d3635a02146104aa578063d547741f146104ca578063d96a094a146104ea578063ecb85a4f1461050a57600080fd5b8063ac44600214610455578063ca15c8731461046a578063d1d683d11461048a57600080fd5b806381bac14f146103785780639010d07c1461039857806391d14854146103d0578063a217fddf146103f0578063a4c1c8e014610405578063a9059cbb1461043557600080fd5b806336568abe1161012357806336568abe146102ad5780633659cfe6146102cd5780634f1ef286146102ed57806350aa8ee41461030057806352d1902d1461032f57806360a4b76a1461034457600080fd5b806301ffc9a71461016b5780631459457a146101a0578063213a3bdd146101c257806322816e36146101f1578063248a9ca31461024f5780632f2ff15d1461028d575b600080fd5b34801561017757600080fd5b5061018b610186366004612b0f565b61056c565b60405190151581526020015b60405180910390f35b3480156101ac57600080fd5b506101c06101bb366004612b4e565b610597565b005b3480156101ce57600080fd5b506101e26101dd366004612bbf565b6107ed565b60405161019793929190612c50565b3480156101fd57600080fd5b5061016254610163546101645461016554610166546101675461022295949392919086565b604080519687526020870195909552938501929092526060840152608083015260a082015260c001610197565b34801561025b57600080fd5b5061027f61026a366004612cbb565b60009081526065602052604090206001015490565b604051908152602001610197565b34801561029957600080fd5b506101c06102a8366004612cd4565b6109bd565b3480156102b957600080fd5b506101c06102c8366004612cd4565b6109e7565b3480156102d957600080fd5b506101c06102e8366004612bbf565b610a65565b6101c06102fb366004612d1a565b610b44565b34801561030c57600080fd5b5061032061031b366004612bbf565b610c10565b60405161019793929190612dde565b34801561033b57600080fd5b5061027f610d45565b34801561035057600080fd5b5061027f7fa076a07f65bcd51bcb15a0f01a65bc18f2d922acb81bcfd8af4caf5adb55709181565b34801561038457600080fd5b506101c0610393366004612bbf565b610df8565b3480156103a457600080fd5b506103b86103b3366004612e17565b610fe6565b6040516001600160a01b039091168152602001610197565b3480156103dc57600080fd5b5061018b6103eb366004612cd4565b611005565b3480156103fc57600080fd5b5061027f600081565b34801561041157600080fd5b50610425610420366004612bbf565b611030565b6040516101979493929190612e89565b34801561044157600080fd5b506101c0610450366004612f23565b611238565b34801561046157600080fd5b506101c06113f1565b34801561047657600080fd5b5061027f610485366004612cbb565b6114d4565b34801561049657600080fd5b5061027f6104a5366004612bbf565b6114eb565b3480156104b657600080fd5b506101c06104c5366004612cbb565b6116d1565b3480156104d657600080fd5b506101c06104e5366004612cd4565b61186a565b3480156104f657600080fd5b506101c0610505366004612cbb565b61188f565b34801561051657600080fd5b5061052a610525366004612bbf565b611a1d565b6040516101979190600060a082019050825182526020830151602083015260408301516040830152606083015160608301526080830151608083015292915050565b60006001600160e01b03198216635a05180f60e01b1480610591575061059182611aaa565b92915050565b600054610100900460ff16158080156105b75750600054600160ff909116105b806105d15750303b1580156105d1575060005460ff166001145b6106395760405162461bcd60e51b815260206004820152602e60248201527f496e697469616c697a61626c653a20636f6e747261637420697320616c72656160448201526d191e481a5b9a5d1a585b1a5e995960921b60648201526084015b60405180910390fd5b6000805460ff19166001179055801561065c576000805461ff0019166101001790555b610664611adf565b61066c611b06565b610674611adf565b61067f600033611b35565b6106a97fa076a07f65bcd51bcb15a0f01a65bc18f2d922acb81bcfd8af4caf5adb55709133611b35565b60006106b842624f1a00612f65565b6040805160c0810182526aadb53acfa41aee1200000080825242602080840182905283850186905260016060850181905268056bc75e2d6310000060808601819052683635c9adc5dea0000060a09096018690526101629490945561016392909255610164959095556101655561016655610167556005610168556032610169556001600160a01b0387811660008181526101619094529190922080546001600160a01b0319908116909217905561015f805482168a84161790556101608054821689841617905561016a8054821687841617905561016b80549091169185169190911790555080156107e5576000805461ff0019169055604051600181527f7f26b83ff96e1f2b6a682f133852f6798a09c465da95921460cefb38474024989060200160405180910390a15b505050505050565b606080606061016c6000856001600160a01b03166001600160a01b0316815260200190815260200160002060010180548060200260200160405190810160405280929190818152602001828054801561086f57602002820191906000526020600020905b81546001600160a01b03168152600190910190602001808311610851575b505050506001600160a01b038616600090815261016c6020908152604091829020805483518184028101840190945280845294975091939192508301828280156108d857602002820191906000526020600020905b8154815260200190600101908083116108c4575b50505050509150825167ffffffffffffffff8111156108f9576108f9612d04565b604051908082528060200260200182016040528015610922578160200160208202803683370190505b50905060005b83518110156109b557610161600085838151811061094857610948612f78565b60200260200101516001600160a01b03166001600160a01b0316815260200190815260200160002060040160009054906101000a900460ff1682828151811061099357610993612f78565b91151560209283029190910190910152806109ad81612f8e565b915050610928565b509193909250565b6000828152606560205260409020600101546109d881611b57565b6109e28383611b35565b505050565b6001600160a01b0381163314610a575760405162461bcd60e51b815260206004820152602f60248201527f416363657373436f6e74726f6c3a2063616e206f6e6c792072656e6f756e636560448201526e103937b632b9903337b91039b2b63360891b6064820152608401610630565b610a618282611b61565b5050565b6001600160a01b037f0000000000000000000000000000000000000000000000000000000000000000163003610aad5760405162461bcd60e51b815260040161063090612fa7565b7f00000000000000000000000000000000000000000000000000000000000000006001600160a01b0316610af660008051602061333f833981519152546001600160a01b031690565b6001600160a01b031614610b1c5760405162461bcd60e51b815260040161063090612ff3565b610b2581611b83565b60408051600080825260208201909252610b4191839190611bad565b50565b6001600160a01b037f0000000000000000000000000000000000000000000000000000000000000000163003610b8c5760405162461bcd60e51b815260040161063090612fa7565b7f00000000000000000000000000000000000000000000000000000000000000006001600160a01b0316610bd560008051602061333f833981519152546001600160a01b031690565b6001600160a01b031614610bfb5760405162461bcd60e51b815260040161063090612ff3565b610c0482611b83565b610a6182826001611bad565b6001600160a01b038116600090815261016d6020908152604091829020805483518184028101840190945280845260609384938493926001840192600285019290918591830182828015610c8d57602002820191906000526020600020905b81546001600160a01b03168152600190910190602001808311610c6f575b5050505050925081805480602002602001604051908101604052809291908181526020018280548015610cdf57602002820191906000526020600020905b815481526020019060010190808311610ccb575b5050505050915080805480602002602001604051908101604052809291908181526020018280548015610d3157602002820191906000526020600020905b815481526020019060010190808311610d1d575b505050505090509250925092509193909250565b6000306001600160a01b037f00000000000000000000000000000000000000000000000000000000000000001614610de55760405162461bcd60e51b815260206004820152603860248201527f555550535570677261646561626c653a206d757374206e6f742062652063616c60448201527f6c6564207468726f7567682064656c656761746563616c6c00000000000000006064820152608401610630565b5060008051602061333f83398151915290565b3360009081526101616020526040902080546001600160a01b031615610e575760405162461bcd60e51b815260206004820152601460248201527349646f3a20616c72656164792062696e64696e6760601b6044820152606401610630565b6001600160a01b038083166000908152610161602052604090208054909116610ec25760405162461bcd60e51b815260206004820152601960248201527f49646f3a207265666572726572206e6f742062696e64696e67000000000000006044820152606401610630565b8154336001600160a01b0319918216811784556001808501805484166001600160a01b038816908117909155600285018054808401825560009182526020808320909101805487168617905591815261016c8252604081208054808501825581835283832042910155830180549384018155815220018054909216179055825b6001600160a01b03811615610f9f576001600160a01b0390811660008181526101616020908152604082206003810180546001818101835591855292842090920180546001600160a01b0319163317905592909152015416610f42565b604080513381526001600160a01b03861660208201527f33029183bbc52ee7c3f3d853005c585dc1d06eca1ea1475446129b02a1e23385910160405180910390a150505050565b6000828152609760205260408120610ffe9083611d18565b9392505050565b60009182526065602090815260408084206001600160a01b0393909316845291905290205460ff1690565b6001600160a01b038116600090815261016e602090815260409182902080548351818402810184019094528084526060938493849384939092600184019260028501926003860192918691908301828280156110ab57602002820191906000526020600020905b815481526020019060010190808311611097575b50505050509350828054806020026020016040519081016040528092919081815260200182805480156110fd57602002820191906000526020600020905b8154815260200190600101908083116110e9575b5050505050925081805480602002602001604051908101604052809291908181526020016000905b828210156111d15783829060005260206000200180546111449061303f565b80601f01602080910402602001604051908101604052809291908181526020018280546111709061303f565b80156111bd5780601f10611192576101008083540402835291602001916111bd565b820191906000526020600020905b8154815290600101906020018083116111a057829003601f168201915b505050505081526020019060010190611125565b5050505091508080548060200260200160405190810160405280929190818152602001828054801561122257602002820191906000526020600020905b81548152602001906001019080831161120e575b5050505050905093509350935093509193509193565b611240611d24565b33600090815261016160205260409020600701548111156112975760405162461bcd60e51b8152602060048201526011602482015270125113ce881a5b9cdd59999a58da595b9d607a1b6044820152606401610630565b6001600160a01b0382166000908152610161602052604090206004015460ff166112f95760405162461bcd60e51b815260206004820152601360248201527224a2279d103932b1b2b4bb32b91032b93937b960691b6044820152606401610630565b33600090815261016160205260408120600701805483929061131c908490613079565b90915550506001600160a01b038216600090815261016160205260408120600701805483929061134d908490612f65565b909155505033600081815261016d6020908152604080832080546001808201835582865284862090910180546001600160a01b0319166001600160a01b038a1617905580820180548083018255908652848620018790556002918201805491820181558552938390204294019390935580518082019091526004808252631554d11560e21b928201929092526113e7939291859190611d7d565b610a61600160c955565b6113f9611d24565b6000611404336114eb565b33600090815261016160205260408120426009820155600a0180549293508392909190611432908490612f65565b9091555050610169546000906103e89061144c908461308c565b61145691906130b9565b61016a5461016054919250611478916001600160a01b03908116911683611e1a565b61149a336114868385613079565b610160546001600160a01b03169190611e1a565b6114c633600284604051806040016040528060058152602001644d6f6e657960d81b8152506005611d7d565b50506114d2600160c955565b565b600081815260976020526040812061059190611e7d565b6001600160a01b03808216600090815261016160209081526040808320815161016081018352815486168152600182015490951685840152600281018054835181860281018601855281815295968796909593948601939092919083018282801561157f57602002820191906000526020600020905b81546001600160a01b03168152600190910190602001808311611561575b50505050508152602001600382018054806020026020016040519081016040528092919081815260200182805480156115e157602002820191906000526020600020905b81546001600160a01b031681526001909101906020018083116115c3575b5050509183525050600482015460ff1615156020820152600582015460408201526006820154606082015260078201546080820152600882015460a0820152600982015460c0820152600a9091015460e09091015261012081015190915060009062015180906116519042613079565b61165b91906130b9565b905060006103e86101685483856101000151611677919061308c565b611681919061308c565b61168b91906130b9565b9050826101000151836101400151826116a49190612f65565b11156116c9578261014001518361010001516116c09190613079565b95945050505050565b949350505050565b6116d9611d24565b336000908152610161602052604090206004015460ff1661173c5760405162461bcd60e51b815260206004820152601a60248201527f49444f3a206163636f756e74206e6f74206163746976617465640000000000006044820152606401610630565b33600090815261016160205260409020600701548111156117935760405162461bcd60e51b815260206004820152601160248201527024a2279d1030b6b7bab73a1032b93937b960791b6044820152606401610630565b3360009081526101616020526040812060070180548392906117b6908490613079565b9091555050610169546000906103e8906117d0908461308c565b6117da91906130b9565b61016b5461016a5461015f54929350611803926001600160a01b03908116928116911684611e87565b61016b54611834906001600160a01b03163361181f8486613079565b61015f546001600160a01b0316929190611e87565b61185f33600284604051806040016040528060048152602001631554d11560e21b8152506003611d7d565b50610b41600160c955565b60008281526065602052604090206001015461188581611b57565b6109e28383611b61565b611897611d24565b6118a081611ec5565b6118a98161204e565b33600090815261016160205260409020600401805460ff19166001179055610165546118d590826130b9565b3360009081526101616020526040902060088101919091554260058201819055600682018390556009820155600101546001600160a01b031615611a1357606461192082603261308c565b61192a91906130b9565b3360009081526101616020526040808220600101546001600160a01b031682528120600701805490919061195f908490612f65565b9091555050336000908152610161602052604090206001908101546119c5916001600160a01b0390911690606461199785603261308c565b6119a191906130b9565b604051806040016040528060048152602001631554d11560e21b8152506001611d7d565b33600090815261016160205260408082206001908101546001600160a01b03908116845291909220820154611a13929116906064611a0485600561308c565b611a0e91906130b9565b612162565b610b41600160c955565b611a4f6040518060a0016040528060008152602001600081526020016000815260200160008152602001600081525090565b6001600160a01b038216600081815261016160208181526040808420600581015487526006810154878401526008810154918701829052600a0154606087018190529490935252611aa09190613079565b6080820152919050565b60006001600160e01b03198216637965db0b60e01b148061059157506301ffc9a760e01b6001600160e01b0319831614610591565b600054610100900460ff166114d25760405162461bcd60e51b8152600401610630906130cd565b600054610100900460ff16611b2d5760405162461bcd60e51b8152600401610630906130cd565b6114d2612263565b611b3f828261228a565b60008281526097602052604090206109e29082612310565b610b418133612325565b611b6b828261237e565b60008281526097602052604090206109e290826123e5565b7fa076a07f65bcd51bcb15a0f01a65bc18f2d922acb81bcfd8af4caf5adb557091610a6181611b57565b7f4910fdfa16fed3260ed0e7147f7cc6da11a60208b5b9406d12a635614ffd91435460ff1615611be0576109e2836123fa565b826001600160a01b03166352d1902d6040518163ffffffff1660e01b8152600401602060405180830381865afa925050508015611c3a575060408051601f3d908101601f19168201909252611c3791810190613118565b60015b611c9d5760405162461bcd60e51b815260206004820152602e60248201527f45524331393637557067726164653a206e657720696d706c656d656e7461746960448201526d6f6e206973206e6f74205555505360901b6064820152608401610630565b60008051602061333f8339815191528114611d0c5760405162461bcd60e51b815260206004820152602960248201527f45524331393637557067726164653a20756e737570706f727465642070726f786044820152681a58589b195555525160ba1b6064820152608401610630565b506109e2838383612496565b6000610ffe83836124bb565b600260c95403611d765760405162461bcd60e51b815260206004820152601f60248201527f5265656e7472616e637947756172643a207265656e7472616e742063616c6c006044820152606401610630565b600260c955565b6001600160a01b038516600090815261016e60209081526040822080546001818101835582855283852090910188905580820180548083018255908552838520018790556002909101805491820181558352912001611ddc8382613177565b506001600160a01b03909416600090815261016e602090815260408220600301805460018101825590835291200193909355505050565b600160c955565b6040516001600160a01b0383166024820152604481018290526109e290849063a9059cbb60e01b906064015b60408051601f198184030181529190526020810180516001600160e01b03166001600160e01b0319909316929092179091526124e5565b6000610591825490565b6040516001600160a01b0380851660248301528316604482015260648101829052611ebf9085906323b872dd60e01b90608401611e46565b50505050565b610163544210801590611edb5750610164544211155b611f195760405162461bcd60e51b815260206004820152600f60248201526e24a2279d103a34b6b29032b93937b960891b6044820152606401610630565b33600090815261016160205260409020600101546001600160a01b0316611f785760405162461bcd60e51b8152602060048201526013602482015272125113ce881b9bdd081c9959da5cdd195c9959606a1b6044820152606401610630565b336000908152610161602052604090206004015460ff1615611fdc5760405162461bcd60e51b815260206004820152601960248201527f49444f3a20616c726561647920706172746963697061746564000000000000006044820152606401610630565b610166548110801590611ff25750610167548111155b801561200e575061200c68056bc75e2d6310000082613237565b155b610b415760405162461bcd60e51b815260206004820152601160248201527024a2279d1030b6b7bab73a1032b93937b960791b6044820152606401610630565b61207e337338a656317e707efb853b97e4ef332e5a3b5d34a4606461207485603761308c565b61181f91906130b9565b6120a433739b0459144996edcf2f808634e87f9cd4185b4d1f606461207485600861308c565b6120ca33735af59f00a3f52c9f092826c4c898947491b21865606461207485600861308c565b6120f03373bb71dfdcaa80e7e34aac035021414759f02c319d606461207485600861308c565b612116337318d4cbd0ba64bcba966d6e6183ecf4bf799ec592606461207485600861308c565b61213c33739934db59632bc2fd0d38539636837c500ff225b0606461207485600861308c565b610b41337361d859dd67a4842f1048a3e643632a446f4b4544606461207485600561308c565b6001600160a01b03831615806121785750600882115b1561218257505050565b6001600160a01b038316600090815261016160205260409020600201546003118015906121cb57506001600160a01b038316600090815261016160205260409020600201548211155b1561222e576001600160a01b03831660009081526101616020526040812060070180548392906121fc908490612f65565b9250508190555061222e83600183604051806040016040528060048152602001631554d11560e21b8152506002611d7d565b6001600160a01b03808416600090815261016160205260409020600101546109e291168361225b81612f8e565b945083612162565b600054610100900460ff16611e135760405162461bcd60e51b8152600401610630906130cd565b6122948282611005565b610a615760008281526065602090815260408083206001600160a01b03851684529091529020805460ff191660011790556122cc3390565b6001600160a01b0316816001600160a01b0316837f2f8788117e7eff1d82e926ec794901d17c78024a50270940304540a733656f0d60405160405180910390a45050565b6000610ffe836001600160a01b0384166125ba565b61232f8282611005565b610a615761233c81612609565b61234783602061261b565b60405160200161235892919061324b565b60408051601f198184030181529082905262461bcd60e51b8252610630916004016132c0565b6123888282611005565b15610a615760008281526065602090815260408083206001600160a01b0385168085529252808320805460ff1916905551339285917ff6391f5c32d9c69d2a47ea670b442974b53935d1edc7fd64eb21e047a839171b9190a45050565b6000610ffe836001600160a01b0384166127b7565b6001600160a01b0381163b6124675760405162461bcd60e51b815260206004820152602d60248201527f455243313936373a206e657720696d706c656d656e746174696f6e206973206e60448201526c1bdd08184818dbdb9d1c9858dd609a1b6064820152608401610630565b60008051602061333f83398151915280546001600160a01b0319166001600160a01b0392909216919091179055565b61249f836128aa565b6000825111806124ac5750805b156109e257611ebf83836128ea565b60008260000182815481106124d2576124d2612f78565b9060005260206000200154905092915050565b600061253a826040518060400160405280602081526020017f5361666545524332303a206c6f772d6c6576656c2063616c6c206661696c6564815250856001600160a01b031661290f9092919063ffffffff16565b905080516000148061255b57508080602001905181019061255b91906132d3565b6109e25760405162461bcd60e51b815260206004820152602a60248201527f5361666545524332303a204552433230206f7065726174696f6e20646964206e6044820152691bdd081cdd58d8d9595960b21b6064820152608401610630565b600081815260018301602052604081205461260157508154600181810184556000848152602080822090930184905584548482528286019093526040902091909155610591565b506000610591565b60606105916001600160a01b03831660145b6060600061262a83600261308c565b612635906002612f65565b67ffffffffffffffff81111561264d5761264d612d04565b6040519080825280601f01601f191660200182016040528015612677576020820181803683370190505b509050600360fc1b8160008151811061269257612692612f78565b60200101906001600160f81b031916908160001a905350600f60fb1b816001815181106126c1576126c1612f78565b60200101906001600160f81b031916908160001a90535060006126e584600261308c565b6126f0906001612f65565b90505b6001811115612768576f181899199a1a9b1b9c1cb0b131b232b360811b85600f166010811061272457612724612f78565b1a60f81b82828151811061273a5761273a612f78565b60200101906001600160f81b031916908160001a90535060049490941c93612761816132f5565b90506126f3565b508315610ffe5760405162461bcd60e51b815260206004820181905260248201527f537472696e67733a20686578206c656e67746820696e73756666696369656e746044820152606401610630565b600081815260018301602052604081205480156128a05760006127db600183613079565b85549091506000906127ef90600190613079565b905081811461285457600086600001828154811061280f5761280f612f78565b906000526020600020015490508087600001848154811061283257612832612f78565b6000918252602080832090910192909255918252600188019052604090208390555b85548690806128655761286561330c565b600190038181906000526020600020016000905590558560010160008681526020019081526020016000206000905560019350505050610591565b6000915050610591565b6128b3816123fa565b6040516001600160a01b038216907fbc7cd75a20ee27fd9adebab32041f755214dbc6bffa90cc0225b39da2e5c2d3b90600090a250565b6060610ffe838360405180606001604052806027815260200161335f6027913961291e565b60606116c98484600085612996565b6060600080856001600160a01b03168560405161293b9190613322565b600060405180830381855af49150503d8060008114612976576040519150601f19603f3d011682016040523d82523d6000602084013e61297b565b606091505b509150915061298c86838387612a71565b9695505050505050565b6060824710156129f75760405162461bcd60e51b815260206004820152602660248201527f416464726573733a20696e73756666696369656e742062616c616e636520666f6044820152651c8818d85b1b60d21b6064820152608401610630565b600080866001600160a01b03168587604051612a139190613322565b60006040518083038185875af1925050503d8060008114612a50576040519150601f19603f3d011682016040523d82523d6000602084013e612a55565b606091505b5091509150612a6687838387612a71565b979650505050505050565b60608315612ae0578251600003612ad9576001600160a01b0385163b612ad95760405162461bcd60e51b815260206004820152601d60248201527f416464726573733a2063616c6c20746f206e6f6e2d636f6e74726163740000006044820152606401610630565b50816116c9565b6116c98383815115612af55781518083602001fd5b8060405162461bcd60e51b815260040161063091906132c0565b600060208284031215612b2157600080fd5b81356001600160e01b031981168114610ffe57600080fd5b6001600160a01b0381168114610b4157600080fd5b600080600080600060a08688031215612b6657600080fd5b8535612b7181612b39565b94506020860135612b8181612b39565b93506040860135612b9181612b39565b92506060860135612ba181612b39565b91506080860135612bb181612b39565b809150509295509295909350565b600060208284031215612bd157600080fd5b8135610ffe81612b39565b600081518084526020808501945080840160005b83811015612c155781516001600160a01b031687529582019590820190600101612bf0565b509495945050505050565b600081518084526020808501945080840160005b83811015612c1557815187529582019590820190600101612c34565b606081526000612c636060830186612bdc565b602083820381850152612c768287612c20565b8481036040860152855180825282870193509082019060005b81811015612cad578451151583529383019391830191600101612c8f565b509098975050505050505050565b600060208284031215612ccd57600080fd5b5035919050565b60008060408385031215612ce757600080fd5b823591506020830135612cf981612b39565b809150509250929050565b634e487b7160e01b600052604160045260246000fd5b60008060408385031215612d2d57600080fd5b8235612d3881612b39565b9150602083013567ffffffffffffffff80821115612d5557600080fd5b818501915085601f830112612d6957600080fd5b813581811115612d7b57612d7b612d04565b604051601f8201601f19908116603f01168101908382118183101715612da357612da3612d04565b81604052828152886020848701011115612dbc57600080fd5b8260208601602083013760006020848301015280955050505050509250929050565b606081526000612df16060830186612bdc565b8281036020840152612e038186612c20565b9050828103604084015261298c8185612c20565b60008060408385031215612e2a57600080fd5b50508035926020909101359150565b60005b83811015612e54578181015183820152602001612e3c565b50506000910152565b60008151808452612e75816020860160208601612e39565b601f01601f19169290920160200192915050565b608081526000612e9c6080830187612c20565b602083820381850152612eaf8288612c20565b915083820360408501528186518084528284019150828160051b85010183890160005b83811015612f0057601f19878403018552612eee838351612e5d565b94860194925090850190600101612ed2565b50508681036060880152612f148189612c20565b9b9a5050505050505050505050565b60008060408385031215612f3657600080fd5b8235612f4181612b39565b946020939093013593505050565b634e487b7160e01b600052601160045260246000fd5b8082018082111561059157610591612f4f565b634e487b7160e01b600052603260045260246000fd5b600060018201612fa057612fa0612f4f565b5060010190565b6020808252602c908201527f46756e6374696f6e206d7573742062652063616c6c6564207468726f7567682060408201526b19195b1959d85d1958d85b1b60a21b606082015260800190565b6020808252602c908201527f46756e6374696f6e206d7573742062652063616c6c6564207468726f7567682060408201526b6163746976652070726f787960a01b606082015260800190565b600181811c9082168061305357607f821691505b60208210810361307357634e487b7160e01b600052602260045260246000fd5b50919050565b8181038181111561059157610591612f4f565b808202811582820484141761059157610591612f4f565b634e487b7160e01b600052601260045260246000fd5b6000826130c8576130c86130a3565b500490565b6020808252602b908201527f496e697469616c697a61626c653a20636f6e7472616374206973206e6f74206960408201526a6e697469616c697a696e6760a81b606082015260800190565b60006020828403121561312a57600080fd5b5051919050565b601f8211156109e257600081815260208120601f850160051c810160208610156131585750805b601f850160051c820191505b818110156107e557828155600101613164565b815167ffffffffffffffff81111561319157613191612d04565b6131a58161319f845461303f565b84613131565b602080601f8311600181146131da57600084156131c25750858301515b600019600386901b1c1916600185901b1785556107e5565b600085815260208120601f198616915b82811015613209578886015182559484019460019091019084016131ea565b50858210156132275787850151600019600388901b60f8161c191681555b5050505050600190811b01905550565b600082613246576132466130a3565b500690565b7f416363657373436f6e74726f6c3a206163636f756e7420000000000000000000815260008351613283816017850160208801612e39565b7001034b99036b4b9b9b4b733903937b6329607d1b60179184019182015283516132b4816028840160208801612e39565b01602801949350505050565b602081526000610ffe6020830184612e5d565b6000602082840312156132e557600080fd5b81518015158114610ffe57600080fd5b60008161330457613304612f4f565b506000190190565b634e487b7160e01b600052603160045260246000fd5b60008251613334818460208701612e39565b919091019291505056fe360894a13ba1a3210667c828492db98dca3e2076cc3735a920a3ca505d382bbc416464726573733a206c6f772d6c6576656c2064656c65676174652063616c6c206661696c6564a26469706673582212202a57be338d4f3afa11384eb42d6945984acb4b42c6a470d193e5b294d36ed86164736f6c63430008110033",
  "linkReferences": {},
  "deployedLinkReferences": {}
}