{
  "_format": "hh-sol-artifact-1",
  "contractName": "Stake",
  "sourceName": "contracts/Stake.sol",
  "abi": [
    {
      "inputs": [],
      "stateMutability": "nonpayable",
      "type": "constructor"
    },
    {
      "anonymous": false,
      "inputs": [
        {
          "indexed": false,
          "internalType": "address",
          "name": "previousAdmin",
          "type": "address"
        },
        {
          "indexed": false,
          "internalType": "address",
          "name": "newAdmin",
          "type": "address"
        }
      ],
      "name": "AdminChanged",
      "type": "event"
    },
    {
      "anonymous": false,
      "inputs": [
        {
          "indexed": true,
          "internalType": "address",
          "name": "beacon",
          "type": "address"
        }
      ],
      "name": "BeaconUpgraded",
      "type": "event"
    },
    {
      "anonymous": false,
      "inputs": [
        {
          "indexed": false,
          "internalType": "uint8",
          "name": "version",
          "type": "uint8"
        }
      ],
      "name": "Initialized",
      "type": "event"
    },
    {
      "anonymous": false,
      "inputs": [
        {
          "indexed": true,
          "internalType": "bytes32",
          "name": "role",
          "type": "bytes32"
        },
        {
          "indexed": true,
          "internalType": "bytes32",
          "name": "previousAdminRole",
          "type": "bytes32"
        },
        {
          "indexed": true,
          "internalType": "bytes32",
          "name": "newAdminRole",
          "type": "bytes32"
        }
      ],
      "name": "RoleAdminChanged",
      "type": "event"
    },
    {
      "anonymous": false,
      "inputs": [
        {
          "indexed": true,
          "internalType": "bytes32",
          "name": "role",
          "type": "bytes32"
        },
        {
          "indexed": true,
          "internalType": "address",
          "name": "account",
          "type": "address"
        },
        {
          "indexed": true,
          "internalType": "address",
          "name": "sender",
          "type": "address"
        }
      ],
      "name": "RoleGranted",
      "type": "event"
    },
    {
      "anonymous": false,
      "inputs": [
        {
          "indexed": true,
          "internalType": "bytes32",
          "name": "role",
          "type": "bytes32"
        },
        {
          "indexed": true,
          "internalType": "address",
          "name": "account",
          "type": "address"
        },
        {
          "indexed": true,
          "internalType": "address",
          "name": "sender",
          "type": "address"
        }
      ],
      "name": "RoleRevoked",
      "type": "event"
    },
    {
      "anonymous": false,
      "inputs": [
        {
          "indexed": false,
          "internalType": "address",
          "name": "caller",
          "type": "address"
        },
        {
          "indexed": false,
          "internalType": "uint256",
          "name": "amount",
          "type": "uint256"
        },
        {
          "indexed": false,
          "internalType": "uint256",
          "name": "stakingTime",
          "type": "uint256"
        },
        {
          "indexed": false,
          "internalType": "uint256",
          "name": "stakingLockTime",
          "type": "uint256"
        },
        {
          "indexed": false,
          "internalType": "uint256",
          "name": "stakingId",
          "type": "uint256"
        }
      ],
      "name": "Staking",
      "type": "event"
    },
    {
      "anonymous": false,
      "inputs": [
        {
          "indexed": false,
          "internalType": "address",
          "name": "caller",
          "type": "address"
        },
        {
          "indexed": false,
          "internalType": "uint256",
          "name": "stakingId",
          "type": "uint256"
        },
        {
          "indexed": false,
          "internalType": "uint256",
          "name": "amount",
          "type": "uint256"
        }
      ],
      "name": "Unstaking",
      "type": "event"
    },
    {
      "anonymous": false,
      "inputs": [
        {
          "indexed": true,
          "internalType": "address",
          "name": "implementation",
          "type": "address"
        }
      ],
      "name": "Upgraded",
      "type": "event"
    },
    {
      "inputs": [],
      "name": "DEFAULT_ADMIN_ROLE",
      "outputs": [
        {
          "internalType": "bytes32",
          "name": "",
          "type": "bytes32"
        }
      ],
      "stateMutability": "view",
      "type": "function"
    },
    {
      "inputs": [],
      "name": "MANAGE_ROLE",
      "outputs": [
        {
          "internalType": "bytes32",
          "name": "",
          "type": "bytes32"
        }
      ],
      "stateMutability": "view",
      "type": "function"
    },
    {
      "inputs": [],
      "name": "OPERATE_ROLE",
      "outputs": [
        {
          "internalType": "bytes32",
          "name": "",
          "type": "bytes32"
        }
      ],
      "stateMutability": "view",
      "type": "function"
    },
    {
      "inputs": [
        {
          "internalType": "address",
          "name": "token",
          "type": "address"
        }
      ],
      "name": "balance",
      "outputs": [
        {
          "internalType": "uint256",
          "name": "",
          "type": "uint256"
        }
      ],
      "stateMutability": "view",
      "type": "function"
    },
    {
      "inputs": [
        {
          "internalType": "bytes32",
          "name": "role",
          "type": "bytes32"
        }
      ],
      "name": "getRoleAdmin",
      "outputs": [
        {
          "internalType": "bytes32",
          "name": "",
          "type": "bytes32"
        }
      ],
      "stateMutability": "view",
      "type": "function"
    },
    {
      "inputs": [
        {
          "internalType": "bytes32",
          "name": "role",
          "type": "bytes32"
        },
        {
          "internalType": "uint256",
          "name": "index",
          "type": "uint256"
        }
      ],
      "name": "getRoleMember",
      "outputs": [
        {
          "internalType": "address",
          "name": "",
          "type": "address"
        }
      ],
      "stateMutability": "view",
      "type": "function"
    },
    {
      "inputs": [
        {
          "internalType": "bytes32",
          "name": "role",
          "type": "bytes32"
        }
      ],
      "name": "getRoleMemberCount",
      "outputs": [
        {
          "internalType": "uint256",
          "name": "",
          "type": "uint256"
        }
      ],
      "stateMutability": "view",
      "type": "function"
    },
    {
      "inputs": [
        {
          "internalType": "bytes32",
          "name": "role",
          "type": "bytes32"
        },
        {
          "internalType": "address",
          "name": "account",
          "type": "address"
        }
      ],
      "name": "grantRole",
      "outputs": [],
      "stateMutability": "nonpayable",
      "type": "function"
    },
    {
      "inputs": [
        {
          "internalType": "bytes32",
          "name": "role",
          "type": "bytes32"
        },
        {
          "internalType": "address",
          "name": "account",
          "type": "address"
        }
      ],
      "name": "hasRole",
      "outputs": [
        {
          "internalType": "bool",
          "name": "",
          "type": "bool"
        }
      ],
      "stateMutability": "view",
      "type": "function"
    },
    {
      "inputs": [
        {
          "internalType": "contract IERC20Upgradeable",
          "name": "_Token",
          "type": "address"
        }
      ],
      "name": "initialize",
      "outputs": [],
      "stateMutability": "nonpayable",
      "type": "function"
    },
    {
      "inputs": [],
      "name": "proxiableUUID",
      "outputs": [
        {
          "internalType": "bytes32",
          "name": "",
          "type": "bytes32"
        }
      ],
      "stateMutability": "view",
      "type": "function"
    },
    {
      "inputs": [
        {
          "internalType": "bytes32",
          "name": "role",
          "type": "bytes32"
        },
        {
          "internalType": "address",
          "name": "account",
          "type": "address"
        }
      ],
      "name": "renounceRole",
      "outputs": [],
      "stateMutability": "nonpayable",
      "type": "function"
    },
    {
      "inputs": [
        {
          "internalType": "bytes32",
          "name": "role",
          "type": "bytes32"
        },
        {
          "internalType": "address",
          "name": "account",
          "type": "address"
        }
      ],
      "name": "revokeRole",
      "outputs": [],
      "stateMutability": "nonpayable",
      "type": "function"
    },
    {
      "inputs": [
        {
          "internalType": "bool",
          "name": "_funcSwitch",
          "type": "bool"
        }
      ],
      "name": "setFuncSwith",
      "outputs": [],
      "stateMutability": "nonpayable",
      "type": "function"
    },
    {
      "inputs": [
        {
          "internalType": "uint256",
          "name": "amount",
          "type": "uint256"
        },
        {
          "internalType": "uint256",
          "name": "time",
          "type": "uint256"
        }
      ],
      "name": "stake",
      "outputs": [],
      "stateMutability": "nonpayable",
      "type": "function"
    },
    {
      "inputs": [
        {
          "internalType": "bytes4",
          "name": "interfaceId",
          "type": "bytes4"
        }
      ],
      "name": "supportsInterface",
      "outputs": [
        {
          "internalType": "bool",
          "name": "",
          "type": "bool"
        }
      ],
      "stateMutability": "view",
      "type": "function"
    },
    {
      "inputs": [
        {
          "internalType": "uint256",
          "name": "stakingId",
          "type": "uint256"
        }
      ],
      "name": "unstake",
      "outputs": [],
      "stateMutability": "nonpayable",
      "type": "function"
    },
    {
      "inputs": [
        {
          "internalType": "address",
          "name": "newImplementation",
          "type": "address"
        }
      ],
      "name": "upgradeTo",
      "outputs": [],
      "stateMutability": "nonpayable",
      "type": "function"
    },
    {
      "inputs": [
        {
          "internalType": "address",
          "name": "newImplementation",
          "type": "address"
        },
        {
          "internalType": "bytes",
          "name": "data",
          "type": "bytes"
        }
      ],
      "name": "upgradeToAndCall",
      "outputs": [],
      "stateMutability": "payable",
      "type": "function"
    },
    {
      "stateMutability": "payable",
      "type": "receive"
    }
  ],
  "bytecode": "0x60a06040523060805234801561001457600080fd5b5061001d610022565b6100e1565b600054610100900460ff161561008e5760405162461bcd60e51b815260206004820152602760248201527f496e697469616c697a61626c653a20636f6e747261637420697320696e697469604482015266616c697a696e6760c81b606482015260840160405180910390fd5b60005460ff908116146100df576000805460ff191660ff9081179091556040519081527f7f26b83ff96e1f2b6a682f133852f6798a09c465da95921460cefb38474024989060200160405180910390a15b565b608051611f546101186000396000818161073a0152818161077a015281816108160152818161085601526108e50152611f546000f3fe6080604052600436106101185760003560e01c80637b0472f0116100a0578063c4d66de811610064578063c4d66de814610310578063c81f0af814610330578063ca15c87314610364578063d547741f14610384578063e3d670d7146103a457600080fd5b80637b0472f014610263578063824d5599146102835780639010d07c146102a357806391d14854146102db578063a217fddf146102fb57600080fd5b806336568abe116100e757806336568abe146101d95780633659cfe6146101f95780634f1ef2861461021957806352d1902d1461022c57806360a4b76a1461024157600080fd5b806301ffc9a714610124578063248a9ca3146101595780632e17de78146101975780632f2ff15d146101b957600080fd5b3661011f57005b600080fd5b34801561013057600080fd5b5061014461013f366004611a54565b6103c4565b60405190151581526020015b60405180910390f35b34801561016557600080fd5b50610189610174366004611a7e565b60009081526065602052604090206001015490565b604051908152602001610150565b3480156101a357600080fd5b506101b76101b2366004611a7e565b6103ef565b005b3480156101c557600080fd5b506101b76101d4366004611aac565b610688565b3480156101e557600080fd5b506101b76101f4366004611aac565b6106b2565b34801561020557600080fd5b506101b7610214366004611adc565b610730565b6101b7610227366004611b0f565b61080c565b34801561023857600080fd5b506101896108d8565b34801561024d57600080fd5b50610189600080516020611eff83398151915281565b34801561026f57600080fd5b506101b761027e366004611bd3565b61098b565b34801561028f57600080fd5b506101b761029e366004611c03565b610b94565b3480156102af57600080fd5b506102c36102be366004611bd3565b610bc1565b6040516001600160a01b039091168152602001610150565b3480156102e757600080fd5b506101446102f6366004611aac565b610be0565b34801561030757600080fd5b50610189600081565b34801561031c57600080fd5b506101b761032b366004611adc565b610c0b565b34801561033c57600080fd5b506101897f26dad9aff0b7a25cb40eba58d2c80f6e8234130942d17bd1ec8f5ad95a48c78e81565b34801561037057600080fd5b5061018961037f366004611a7e565b610d70565b34801561039057600080fd5b506101b761039f366004611aac565b610d87565b3480156103b057600080fd5b506101896103bf366004611adc565b610dac565b60006001600160e01b03198216635a05180f60e01b14806103e957506103e982610e2b565b92915050565b6103f7610e60565b336000908152610160602052604090206006810180548390811061041d5761041d611c20565b90600052602060002001546000146104705760405162461bcd60e51b81526020600482015260116024820152705374616b653a206e6f207374616b696e6760781b60448201526064015b60405180910390fd5b600081600301838154811061048757610487611c20565b906000526020600020015411156104f357428160040183815481106104ae576104ae611c20565b90600052602060002001548260030184815481106104ce576104ce611c20565b90600052602060002001546104e39190611c4c565b11156104ee57600080fd5b610549565b4281600401838154811061050957610509611c20565b906000526020600020015482600201848154811061052957610529611c20565b906000526020600020015461053e9190611c4c565b111561054957600080fd5b600181600601838154811061056057610560611c20565b9060005260206000200181905550600081600101838154811061058557610585611c20565b9060005260206000200154116105d15760405162461bcd60e51b81526020600482015260116024820152705374616b653a206e6f207374616b696e6760781b6044820152606401610467565b61060f338260010184815481106105ea576105ea611c20565b60009182526020909120015461015f5461010090046001600160a01b03169190610eb9565b7f3b60256e821e357caf3d06e48635070876d10074a5b47de82d24b8df4fe217bc338383600101858154811061064757610647611c20565b60009182526020918290200154604080516001600160a01b0390951685529184019290925282015260600160405180910390a150610685600160c955565b50565b6000828152606560205260409020600101546106a381610f23565b6106ad8383610f2d565b505050565b6001600160a01b03811633146107225760405162461bcd60e51b815260206004820152602f60248201527f416363657373436f6e74726f6c3a2063616e206f6e6c792072656e6f756e636560448201526e103937b632b9903337b91039b2b63360891b6064820152608401610467565b61072c8282610f4f565b5050565b6001600160a01b037f00000000000000000000000000000000000000000000000000000000000000001630036107785760405162461bcd60e51b815260040161046790611c5f565b7f00000000000000000000000000000000000000000000000000000000000000006001600160a01b03166107c1600080516020611eb8833981519152546001600160a01b031690565b6001600160a01b0316146107e75760405162461bcd60e51b815260040161046790611cab565b6107f081610f71565b6040805160008082526020820190925261068591839190610f89565b6001600160a01b037f00000000000000000000000000000000000000000000000000000000000000001630036108545760405162461bcd60e51b815260040161046790611c5f565b7f00000000000000000000000000000000000000000000000000000000000000006001600160a01b031661089d600080516020611eb8833981519152546001600160a01b031690565b6001600160a01b0316146108c35760405162461bcd60e51b815260040161046790611cab565b6108cc82610f71565b61072c82826001610f89565b6000306001600160a01b037f000000000000000000000000000000000000000000000000000000000000000016146109785760405162461bcd60e51b815260206004820152603860248201527f555550535570677261646561626c653a206d757374206e6f742062652063616c60448201527f6c6564207468726f7567682064656c656761746563616c6c00000000000000006064820152608401610467565b50600080516020611eb883398151915290565b610993610e60565b600082116109d95760405162461bcd60e51b815260206004820152601360248201527229ba30b5b29d1030b6b7bab73a1032b93937b960691b6044820152606401610467565b80610a8c14806109ea575080611518145b806109f6575080612a30145b610a365760405162461bcd60e51b815260206004820152601160248201527029ba30b5b29d103a34b6b29032b93937b960791b6044820152606401610467565b3360009081526101606020526040902080546001600160a01b0316610a665780546001600160a01b031916331781555b61015f54610a849061010090046001600160a01b03163330866110f4565b60018082018054808301825560008281526020808220909201879055600285018054808601825590825282822042910155600385018054808601825590825282822001819055600485018054808601825590825291902001849055546005830191610aee91611cf7565b815460018181018455600093845260208085209092019290925560068401805480840182559084529083200191909155818101547ef2feacd98cd7013da4856f9514942eec31c6a251411d93f233817666103044913391869142918791610b5491611cf7565b604080516001600160a01b0390961686526020860194909452928401919091526060830152608082015260a00160405180910390a15061072c600160c955565b600080516020611eff833981519152610bac81610f23565b5061015f805460ff1916911515919091179055565b6000828152609760205260408120610bd99083611132565b9392505050565b60009182526065602090815260408084206001600160a01b0393909316845291905290205460ff1690565b600054610100900460ff1615808015610c2b5750600054600160ff909116105b80610c455750303b158015610c45575060005460ff166001145b610ca85760405162461bcd60e51b815260206004820152602e60248201527f496e697469616c697a61626c653a20636f6e747261637420697320616c72656160448201526d191e481a5b9a5d1a585b1a5e995960921b6064820152608401610467565b6000805460ff191660011790558015610ccb576000805461ff0019166101001790555b610cd361113e565b610cdb611167565b610ce361113e565b610cee600033610f2d565b610d06600080516020611eff83398151915233610f2d565b61015f8054610100600160a81b0319166101006001600160a01b03851602179055801561072c576000805461ff0019169055604051600181527f7f26b83ff96e1f2b6a682f133852f6798a09c465da95921460cefb38474024989060200160405180910390a15050565b60008181526097602052604081206103e990611196565b600082815260656020526040902060010154610da281610f23565b6106ad8383610f4f565b60006001600160a01b038216610dc3575047919050565b6040516370a0823160e01b81523060048201526001600160a01b038316906370a0823190602401602060405180830381865afa158015610e07573d6000803e3d6000fd5b505050506040513d601f19601f820116820180604052508101906103e99190611d0a565b60006001600160e01b03198216637965db0b60e01b14806103e957506301ffc9a760e01b6001600160e01b03198316146103e9565b600260c95403610eb25760405162461bcd60e51b815260206004820152601f60248201527f5265656e7472616e637947756172643a207265656e7472616e742063616c6c006044820152606401610467565b600260c955565b6040516001600160a01b0383166024820152604481018290526106ad90849063a9059cbb60e01b906064015b60408051601f198184030181529190526020810180516001600160e01b03166001600160e01b0319909316929092179091526111a0565b600160c955565b6106858133611275565b610f3782826112ce565b60008281526097602052604090206106ad9082611354565b610f598282611369565b60008281526097602052604090206106ad90826113d0565b600080516020611eff83398151915261072c81610f23565b7f4910fdfa16fed3260ed0e7147f7cc6da11a60208b5b9406d12a635614ffd91435460ff1615610fbc576106ad836113e5565b826001600160a01b03166352d1902d6040518163ffffffff1660e01b8152600401602060405180830381865afa925050508015611016575060408051601f3d908101601f1916820190925261101391810190611d0a565b60015b6110795760405162461bcd60e51b815260206004820152602e60248201527f45524331393637557067726164653a206e657720696d706c656d656e7461746960448201526d6f6e206973206e6f74205555505360901b6064820152608401610467565b600080516020611eb883398151915281146110e85760405162461bcd60e51b815260206004820152602960248201527f45524331393637557067726164653a20756e737570706f727465642070726f786044820152681a58589b195555525160ba1b6064820152608401610467565b506106ad838383611481565b6040516001600160a01b038085166024830152831660448201526064810182905261112c9085906323b872dd60e01b90608401610ee5565b50505050565b6000610bd983836114a6565b600054610100900460ff166111655760405162461bcd60e51b815260040161046790611d23565b565b600054610100900460ff1661118e5760405162461bcd60e51b815260040161046790611d23565b6111656114d0565b60006103e9825490565b60006111f5826040518060400160405280602081526020017f5361666545524332303a206c6f772d6c6576656c2063616c6c206661696c6564815250856001600160a01b03166114f79092919063ffffffff16565b90508051600014806112165750808060200190518101906112169190611d6e565b6106ad5760405162461bcd60e51b815260206004820152602a60248201527f5361666545524332303a204552433230206f7065726174696f6e20646964206e6044820152691bdd081cdd58d8d9595960b21b6064820152608401610467565b61127f8282610be0565b61072c5761128c8161150e565b611297836020611520565b6040516020016112a8929190611daf565b60408051601f198184030181529082905262461bcd60e51b825261046791600401611e24565b6112d88282610be0565b61072c5760008281526065602090815260408083206001600160a01b03851684529091529020805460ff191660011790556113103390565b6001600160a01b0316816001600160a01b0316837f2f8788117e7eff1d82e926ec794901d17c78024a50270940304540a733656f0d60405160405180910390a45050565b6000610bd9836001600160a01b0384166116bc565b6113738282610be0565b1561072c5760008281526065602090815260408083206001600160a01b0385168085529252808320805460ff1916905551339285917ff6391f5c32d9c69d2a47ea670b442974b53935d1edc7fd64eb21e047a839171b9190a45050565b6000610bd9836001600160a01b03841661170b565b6001600160a01b0381163b6114525760405162461bcd60e51b815260206004820152602d60248201527f455243313936373a206e657720696d706c656d656e746174696f6e206973206e60448201526c1bdd08184818dbdb9d1c9858dd609a1b6064820152608401610467565b600080516020611eb883398151915280546001600160a01b0319166001600160a01b0392909216919091179055565b61148a836117fe565b6000825111806114975750805b156106ad5761112c838361183e565b60008260000182815481106114bd576114bd611c20565b9060005260206000200154905092915050565b600054610100900460ff16610f1c5760405162461bcd60e51b815260040161046790611d23565b60606115068484600085611863565b949350505050565b60606103e96001600160a01b03831660145b6060600061152f836002611e57565b61153a906002611c4c565b67ffffffffffffffff81111561155257611552611af9565b6040519080825280601f01601f19166020018201604052801561157c576020820181803683370190505b509050600360fc1b8160008151811061159757611597611c20565b60200101906001600160f81b031916908160001a905350600f60fb1b816001815181106115c6576115c6611c20565b60200101906001600160f81b031916908160001a90535060006115ea846002611e57565b6115f5906001611c4c565b90505b600181111561166d576f181899199a1a9b1b9c1cb0b131b232b360811b85600f166010811061162957611629611c20565b1a60f81b82828151811061163f5761163f611c20565b60200101906001600160f81b031916908160001a90535060049490941c9361166681611e6e565b90506115f8565b508315610bd95760405162461bcd60e51b815260206004820181905260248201527f537472696e67733a20686578206c656e67746820696e73756666696369656e746044820152606401610467565b6000818152600183016020526040812054611703575081546001818101845560008481526020808220909301849055845484825282860190935260409020919091556103e9565b5060006103e9565b600081815260018301602052604081205480156117f457600061172f600183611cf7565b855490915060009061174390600190611cf7565b90508181146117a857600086600001828154811061176357611763611c20565b906000526020600020015490508087600001848154811061178657611786611c20565b6000918252602080832090910192909255918252600188019052604090208390555b85548690806117b9576117b9611e85565b6001900381819060005260206000200160009055905585600101600086815260200190815260200160002060009055600193505050506103e9565b60009150506103e9565b611807816113e5565b6040516001600160a01b038216907fbc7cd75a20ee27fd9adebab32041f755214dbc6bffa90cc0225b39da2e5c2d3b90600090a250565b6060610bd98383604051806060016040528060278152602001611ed86027913961193e565b6060824710156118c45760405162461bcd60e51b815260206004820152602660248201527f416464726573733a20696e73756666696369656e742062616c616e636520666f6044820152651c8818d85b1b60d21b6064820152608401610467565b600080866001600160a01b031685876040516118e09190611e9b565b60006040518083038185875af1925050503d806000811461191d576040519150601f19603f3d011682016040523d82523d6000602084013e611922565b606091505b5091509150611933878383876119b6565b979650505050505050565b6060600080856001600160a01b03168560405161195b9190611e9b565b600060405180830381855af49150503d8060008114611996576040519150601f19603f3d011682016040523d82523d6000602084013e61199b565b606091505b50915091506119ac868383876119b6565b9695505050505050565b60608315611a25578251600003611a1e576001600160a01b0385163b611a1e5760405162461bcd60e51b815260206004820152601d60248201527f416464726573733a2063616c6c20746f206e6f6e2d636f6e74726163740000006044820152606401610467565b5081611506565b6115068383815115611a3a5781518083602001fd5b8060405162461bcd60e51b81526004016104679190611e24565b600060208284031215611a6657600080fd5b81356001600160e01b031981168114610bd957600080fd5b600060208284031215611a9057600080fd5b5035919050565b6001600160a01b038116811461068557600080fd5b60008060408385031215611abf57600080fd5b823591506020830135611ad181611a97565b809150509250929050565b600060208284031215611aee57600080fd5b8135610bd981611a97565b634e487b7160e01b600052604160045260246000fd5b60008060408385031215611b2257600080fd5b8235611b2d81611a97565b9150602083013567ffffffffffffffff80821115611b4a57600080fd5b818501915085601f830112611b5e57600080fd5b813581811115611b7057611b70611af9565b604051601f8201601f19908116603f01168101908382118183101715611b9857611b98611af9565b81604052828152886020848701011115611bb157600080fd5b8260208601602083013760006020848301015280955050505050509250929050565b60008060408385031215611be657600080fd5b50508035926020909101359150565b801515811461068557600080fd5b600060208284031215611c1557600080fd5b8135610bd981611bf5565b634e487b7160e01b600052603260045260246000fd5b634e487b7160e01b600052601160045260246000fd5b808201808211156103e9576103e9611c36565b6020808252602c908201527f46756e6374696f6e206d7573742062652063616c6c6564207468726f7567682060408201526b19195b1959d85d1958d85b1b60a21b606082015260800190565b6020808252602c908201527f46756e6374696f6e206d7573742062652063616c6c6564207468726f7567682060408201526b6163746976652070726f787960a01b606082015260800190565b818103818111156103e9576103e9611c36565b600060208284031215611d1c57600080fd5b5051919050565b6020808252602b908201527f496e697469616c697a61626c653a20636f6e7472616374206973206e6f74206960408201526a6e697469616c697a696e6760a81b606082015260800190565b600060208284031215611d8057600080fd5b8151610bd981611bf5565b60005b83811015611da6578181015183820152602001611d8e565b50506000910152565b7f416363657373436f6e74726f6c3a206163636f756e7420000000000000000000815260008351611de7816017850160208801611d8b565b7001034b99036b4b9b9b4b733903937b6329607d1b6017918401918201528351611e18816028840160208801611d8b565b01602801949350505050565b6020815260008251806020840152611e43816040850160208701611d8b565b601f01601f19169190910160400192915050565b80820281158282048414176103e9576103e9611c36565b600081611e7d57611e7d611c36565b506000190190565b634e487b7160e01b600052603160045260246000fd5b60008251611ead818460208701611d8b565b919091019291505056fe360894a13ba1a3210667c828492db98dca3e2076cc3735a920a3ca505d382bbc416464726573733a206c6f772d6c6576656c2064656c65676174652063616c6c206661696c6564a076a07f65bcd51bcb15a0f01a65bc18f2d922acb81bcfd8af4caf5adb557091a264697066735822122064883b2d92d840caccfb0fc3357d2d7228b26b3c3ce50c372293937cd79c5d6f64736f6c63430008110033",
  "linkReferences": {},
  "deployedLinkReferences": {}
}